{
  "contractName": "NHLGamePredictions",
  "abi": [
    {
      "inputs": [],
      "stateMutability": "nonpayable",
      "type": "constructor"
    },
    {
      "anonymous": false,
      "inputs": [
        {
          "indexed": true,
          "internalType": "address",
          "name": "_from",
          "type": "address"
        },
        {
          "indexed": false,
          "internalType": "uint256",
          "name": "_id",
          "type": "uint256"
        }
      ],
      "name": "CreatePredictionMarket",
      "type": "event"
    },
    {
      "anonymous": false,
      "inputs": [
        {
          "indexed": true,
          "internalType": "address",
          "name": "_from",
          "type": "address"
        },
        {
          "indexed": true,
          "internalType": "uint256",
          "name": "_id",
          "type": "uint256"
        },
        {
          "indexed": false,
          "internalType": "bool",
          "name": "_isHome",
          "type": "bool"
        },
        {
          "indexed": false,
          "internalType": "uint256",
          "name": "_value",
          "type": "uint256"
        }
      ],
      "name": "SendBet",
      "type": "event"
    },
    {
      "inputs": [
        {
          "internalType": "uint256",
          "name": "",
          "type": "uint256"
        }
      ],
      "name": "createdGames",
      "outputs": [
        {
          "internalType": "uint256",
          "name": "",
          "type": "uint256"
        }
      ],
      "stateMutability": "view",
      "type": "function",
      "constant": true
    },
    {
      "inputs": [],
      "name": "owner",
      "outputs": [
        {
          "internalType": "address",
          "name": "",
          "type": "address"
        }
      ],
      "stateMutability": "view",
      "type": "function",
      "constant": true
    },
    {
      "inputs": [
        {
          "internalType": "uint256",
          "name": "",
          "type": "uint256"
        }
      ],
      "name": "predictionGames",
      "outputs": [
        {
          "internalType": "bool",
          "name": "isDone",
          "type": "bool"
        },
        {
          "internalType": "bool",
          "name": "isCreated",
          "type": "bool"
        },
        {
          "internalType": "bool",
          "name": "isHomeWin",
          "type": "bool"
        },
        {
          "internalType": "uint256",
          "name": "accumulatedWeisHome",
          "type": "uint256"
        },
        {
          "internalType": "uint256",
          "name": "accumulatedWeisAway",
          "type": "uint256"
        }
      ],
      "stateMutability": "view",
      "type": "function",
      "constant": true
    },
    {
      "inputs": [
        {
          "internalType": "address",
          "name": "",
          "type": "address"
        }
      ],
      "name": "users",
      "outputs": [
        {
          "internalType": "bool",
          "name": "isCreated",
          "type": "bool"
        }
      ],
      "stateMutability": "view",
      "type": "function",
      "constant": true
    },
    {
      "inputs": [
        {
          "internalType": "uint256",
          "name": "_id",
          "type": "uint256"
        }
      ],
      "name": "get_user_bet_amount",
      "outputs": [
        {
          "internalType": "uint256",
          "name": "homeAmount",
          "type": "uint256"
        },
        {
          "internalType": "uint256",
          "name": "awayAmount",
          "type": "uint256"
        }
      ],
      "stateMutability": "view",
      "type": "function",
      "constant": true
    },
    {
      "inputs": [
        {
          "internalType": "uint256",
          "name": "_id",
          "type": "uint256"
        }
      ],
      "name": "createGame",
      "outputs": [],
      "stateMutability": "nonpayable",
      "type": "function"
    },
    {
      "inputs": [
        {
          "internalType": "uint256",
          "name": "_id",
          "type": "uint256"
        },
        {
          "internalType": "bool",
          "name": "_isHomeWin",
          "type": "bool"
        }
      ],
      "name": "sendBet",
      "outputs": [],
      "stateMutability": "payable",
      "type": "function",
      "payable": true
    },
    {
      "inputs": [],
      "name": "get_all_user_bets",
      "outputs": [
        {
          "internalType": "uint256[]",
          "name": "bets",
          "type": "uint256[]"
        }
      ],
      "stateMutability": "view",
      "type": "function",
      "constant": true
    },
    {
      "inputs": [],
      "name": "get_all_user_bets_length",
      "outputs": [
        {
          "internalType": "uint256",
          "name": "gameBetsCount",
          "type": "uint256"
        }
      ],
      "stateMutability": "view",
      "type": "function",
      "constant": true
    },
    {
      "inputs": [
        {
          "internalType": "uint256",
          "name": "i",
          "type": "uint256"
        }
      ],
      "name": "get_all_user_bet",
      "outputs": [
        {
          "internalType": "uint256",
          "name": "gameID",
          "type": "uint256"
        }
      ],
      "stateMutability": "view",
      "type": "function",
      "constant": true
    },
    {
      "inputs": [
        {
          "internalType": "uint256",
          "name": "_id",
          "type": "uint256"
        },
        {
          "internalType": "bool",
          "name": "isHomeWin",
          "type": "bool"
        }
      ],
      "name": "claimBet",
      "outputs": [],
      "stateMutability": "view",
      "type": "function",
      "constant": true
    }
  ],
  "bytecode": "0x608060405234801561001057600080fd5b50336000806101000a81548173ffffffffffffffffffffffffffffffffffffffff021916908373ffffffffffffffffffffffffffffffffffffffff1602179055506000600481905550611763806100686000396000f3fe60806040526004361061009c5760003560e01c8063a00dd36611610064578063a00dd36614610187578063a87430ba146101b2578063ae945847146101ef578063b55d41cb1461022c578063df4a7f1814610248578063fac5ae7e146102895761009c565b806317aee757146100a15780633926140e146100df57806348e837b9146101085780635332b5d9146101315780638da5cb5b1461015c575b600080fd5b3480156100ad57600080fd5b506100c860048036038101906100c39190610fcc565b6102c6565b6040516100d6929190611008565b60405180910390f35b3480156100eb57600080fd5b5061010660048036038101906101019190611069565b6103e4565b005b34801561011457600080fd5b5061012f600480360381019061012a9190610fcc565b61050d565b005b34801561013d57600080fd5b50610146610708565b60405161015391906110a9565b60405180910390f35b34801561016857600080fd5b506101716107eb565b60405161017e9190611105565b60405180910390f35b34801561019357600080fd5b5061019c61080f565b6040516101a991906111de565b60405180910390f35b3480156101be57600080fd5b506101d960048036038101906101d4919061122c565b61093d565b6040516101e69190611268565b60405180910390f35b3480156101fb57600080fd5b5061021660048036038101906102119190610fcc565b610968565b60405161022391906110a9565b60405180910390f35b61024660048036038101906102419190611069565b61098c565b005b34801561025457600080fd5b5061026f600480360381019061026a9190610fcc565b610db0565b604051610280959493929190611283565b60405180910390f35b34801561029557600080fd5b506102b060048036038101906102ab9190610fcc565b610e0d565b6040516102bd91906110a9565b60405180910390f35b600080600115156001600085815260200190815260200160002060000160019054906101000a900460ff16151514610333576040517f08c379a000000000000000000000000000000000000000000000000000000000815260040161032a90611333565b60405180910390fd5b6001600084815260200190815260200160002060030160003373ffffffffffffffffffffffffffffffffffffffff1673ffffffffffffffffffffffffffffffffffffffff168152602001908152602001600020546001600085815260200190815260200160002060040160003373ffffffffffffffffffffffffffffffffffffffff1673ffffffffffffffffffffffffffffffffffffffff1681526020019081526020016000205491509150915091565b600115156001600084815260200190815260200160002060000160009054906101000a900460ff1615151461044e576040517f08c379a0000000000000000000000000000000000000000000000000000000008152600401610445906113c5565b60405180910390fd5b600081156104b1576001600084815260200190815260200160002060030160003373ffffffffffffffffffffffffffffffffffffffff1673ffffffffffffffffffffffffffffffffffffffff168152602001908152602001600020549050610508565b6001600084815260200190815260200160002060040160003373ffffffffffffffffffffffffffffffffffffffff1673ffffffffffffffffffffffffffffffffffffffff1681526020019081526020016000205490505b505050565b60008054906101000a900473ffffffffffffffffffffffffffffffffffffffff1673ffffffffffffffffffffffffffffffffffffffff163373ffffffffffffffffffffffffffffffffffffffff161461059b576040517f08c379a000000000000000000000000000000000000000000000000000000000815260040161059290611457565b60405180910390fd5b6000600160008381526020019081526020016000209050600015158160000160019054906101000a900460ff1615151461060a576040517f08c379a0000000000000000000000000000000000000000000000000000000008152600401610601906114e9565b60405180910390fd5b60008160000160006101000a81548160ff02191690831515021790555060018160000160016101000a81548160ff02191690831515021790555060008160000160026101000a81548160ff02191690831515021790555060008160010181905550600081600201819055506003829080600181540180825580915050600190039060005260206000200160009091909190915055600460008154809291906106b190611538565b91905055503373ffffffffffffffffffffffffffffffffffffffff167f8c856b0790348bef68afcc02a2f3fdec4374255bdacf1bc96bf400784bda86ea836040516106fc91906110a9565b60405180910390a25050565b600060011515600260003373ffffffffffffffffffffffffffffffffffffffff1673ffffffffffffffffffffffffffffffffffffffff16815260200190815260200160002060010160009054906101000a900460ff161515146107a0576040517f08c379a0000000000000000000000000000000000000000000000000000000008152600401610797906115cd565b60405180910390fd5b600260003373ffffffffffffffffffffffffffffffffffffffff1673ffffffffffffffffffffffffffffffffffffffff16815260200190815260200160002060000180549050905090565b60008054906101000a900473ffffffffffffffffffffffffffffffffffffffff1681565b606060011515600260003373ffffffffffffffffffffffffffffffffffffffff1673ffffffffffffffffffffffffffffffffffffffff16815260200190815260200160002060010160009054906101000a900460ff161515146108a7576040517f08c379a000000000000000000000000000000000000000000000000000000000815260040161089e906115cd565b60405180910390fd5b600260003373ffffffffffffffffffffffffffffffffffffffff1673ffffffffffffffffffffffffffffffffffffffff16815260200190815260200160002060000180548060200260200160405190810160405280929190818152602001828054801561093357602002820191906000526020600020905b81548152602001906001019080831161091f575b5050505050905090565b60026020528060005260406000206000915090508060010160009054906101000a900460ff16905081565b6003818154811061097857600080fd5b906000526020600020016000915090505481565b600115156001600084815260200190815260200160002060000160019054906101000a900460ff161515146109f6576040517f08c379a00000000000000000000000000000000000000000000000000000000081526004016109ed9061165f565b60405180910390fd5b600034905060006001905060006001600086815260200190815260200160002060030160003373ffffffffffffffffffffffffffffffffffffffff1673ffffffffffffffffffffffffffffffffffffffff168152602001908152602001600020541180610ab6575060006001600086815260200190815260200160002060040160003373ffffffffffffffffffffffffffffffffffffffff1673ffffffffffffffffffffffffffffffffffffffff16815260200190815260200160002054115b15610ac057600090505b8215610b625781600160008681526020019081526020016000206001016000828254610aec919061167f565b92505081905550816001600086815260200190815260200160002060030160003373ffffffffffffffffffffffffffffffffffffffff1673ffffffffffffffffffffffffffffffffffffffff1681526020019081526020016000206000828254610b56919061167f565b92505081905550610bfa565b81600160008681526020019081526020016000206002016000828254610b88919061167f565b92505081905550816001600086815260200190815260200160002060040160003373ffffffffffffffffffffffffffffffffffffffff1673ffffffffffffffffffffffffffffffffffffffff1681526020019081526020016000206000828254610bf2919061167f565b925050819055505b600260003373ffffffffffffffffffffffffffffffffffffffff1673ffffffffffffffffffffffffffffffffffffffff16815260200190815260200160002060010160009054906101000a900460ff16610ce957610c56610f0b565b600181602001901515908115158152505080600260003373ffffffffffffffffffffffffffffffffffffffff1673ffffffffffffffffffffffffffffffffffffffff1681526020019081526020016000206000820151816000019080519060200190610cc3929190610f27565b5060208201518160010160006101000a81548160ff021916908315150217905550905050505b8015610d5957600260003373ffffffffffffffffffffffffffffffffffffffff1673ffffffffffffffffffffffffffffffffffffffff1681526020019081526020016000206000018490806001815401808255809150506001900390600052602060002001600090919091909150555b833373ffffffffffffffffffffffffffffffffffffffff167fc832b3c7d196eb9d1775a2f1c0455cd479c1067418d1a12b5795a2fbd6e7042a8534604051610da29291906116d5565b60405180910390a350505050565b60016020528060005260406000206000915090508060000160009054906101000a900460ff16908060000160019054906101000a900460ff16908060000160029054906101000a900460ff16908060010154908060020154905085565b600060011515600260003373ffffffffffffffffffffffffffffffffffffffff1673ffffffffffffffffffffffffffffffffffffffff16815260200190815260200160002060010160009054906101000a900460ff16151514610ea5576040517f08c379a0000000000000000000000000000000000000000000000000000000008152600401610e9c906115cd565b60405180910390fd5b600260003373ffffffffffffffffffffffffffffffffffffffff1673ffffffffffffffffffffffffffffffffffffffff1681526020019081526020016000206000018281548110610ef957610ef86116fe565b5b90600052602060002001549050919050565b6040518060400160405280606081526020016000151581525090565b828054828255906000526020600020908101928215610f63579160200282015b82811115610f62578251825591602001919060010190610f47565b5b509050610f709190610f74565b5090565b5b80821115610f8d576000816000905550600101610f75565b5090565b600080fd5b6000819050919050565b610fa981610f96565b8114610fb457600080fd5b50565b600081359050610fc681610fa0565b92915050565b600060208284031215610fe257610fe1610f91565b5b6000610ff084828501610fb7565b91505092915050565b61100281610f96565b82525050565b600060408201905061101d6000830185610ff9565b61102a6020830184610ff9565b9392505050565b60008115159050919050565b61104681611031565b811461105157600080fd5b50565b6000813590506110638161103d565b92915050565b600080604083850312156110805761107f610f91565b5b600061108e85828601610fb7565b925050602061109f85828601611054565b9150509250929050565b60006020820190506110be6000830184610ff9565b92915050565b600073ffffffffffffffffffffffffffffffffffffffff82169050919050565b60006110ef826110c4565b9050919050565b6110ff816110e4565b82525050565b600060208201905061111a60008301846110f6565b92915050565b600081519050919050565b600082825260208201905092915050565b6000819050602082019050919050565b61115581610f96565b82525050565b6000611167838361114c565b60208301905092915050565b6000602082019050919050565b600061118b82611120565b611195818561112b565b93506111a08361113c565b8060005b838110156111d15781516111b8888261115b565b97506111c383611173565b9250506001810190506111a4565b5085935050505092915050565b600060208201905081810360008301526111f88184611180565b905092915050565b611209816110e4565b811461121457600080fd5b50565b60008135905061122681611200565b92915050565b60006020828403121561124257611241610f91565b5b600061125084828501611217565b91505092915050565b61126281611031565b82525050565b600060208201905061127d6000830184611259565b92915050565b600060a0820190506112986000830188611259565b6112a56020830187611259565b6112b26040830186611259565b6112bf6060830185610ff9565b6112cc6080830184610ff9565b9695505050505050565b600082825260208201905092915050565b7f5468652067616d65206973206e6f742063726561746564207965742e00000000600082015250565b600061131d601c836112d6565b9150611328826112e7565b602082019050919050565b6000602082019050818103600083015261134c81611310565b9050919050565b7f5468652067616d6520726573756c74206e6565647320746f2062652070726f6360008201527f6573736564206265666f726520656e61626c696e6720636c61696d696e672e00602082015250565b60006113af603f836112d6565b91506113ba82611353565b604082019050919050565b600060208201905081810360008301526113de816113a2565b9050919050565b7f4f6e6c7920746865206f776e65722069732061626c6520746f2063726561746560008201527f20612067616d652e000000000000000000000000000000000000000000000000602082015250565b60006114416028836112d6565b915061144c826113e5565b604082019050919050565b6000602082019050818103600083015261147081611434565b9050919050565b7f63616e6e6f742063726561746520612067616d6520776974682074686520736160008201527f6d652069642e0000000000000000000000000000000000000000000000000000602082015250565b60006114d36026836112d6565b91506114de82611477565b604082019050919050565b60006020820190508181036000830152611502816114c6565b9050919050565b7f4e487b7100000000000000000000000000000000000000000000000000000000600052601160045260246000fd5b600061154382610f96565b91507fffffffffffffffffffffffffffffffffffffffffffffffffffffffffffffffff82141561157657611575611509565b5b600182019050919050565b7f5468652075736572206973206e6f742072656769737465726564207965742e00600082015250565b60006115b7601f836112d6565b91506115c282611581565b602082019050919050565b600060208201905081810360008301526115e6816115aa565b9050919050565b7f5468652067616d65206e6565647320746f206265206372656174656420746f2060008201527f6d616b652061206265742e000000000000000000000000000000000000000000602082015250565b6000611649602b836112d6565b9150611654826115ed565b604082019050919050565b600060208201905081810360008301526116788161163c565b9050919050565b600061168a82610f96565b915061169583610f96565b9250827fffffffffffffffffffffffffffffffffffffffffffffffffffffffffffffffff038211156116ca576116c9611509565b5b828201905092915050565b60006040820190506116ea6000830185611259565b6116f76020830184610ff9565b9392505050565b7f4e487b7100000000000000000000000000000000000000000000000000000000600052603260045260246000fdfea2646970667358221220e8585d2e4aa75048ef408dbfef0be98ed595e7fab72236a93df3c209350c5d0164736f6c634300080a0033",
  "immutableReferences": {},
  "source": "// SPDX-License-Identifier: MIT\r\npragma solidity ^0.8.10;\r\n\r\ncontract NHLGamePredictions {\r\n\r\n    address public owner;  // owner of the contract.\r\n\r\n    mapping(uint => Game) public predictionGames;  // map a game ID with the Game data structure.\r\n    mapping(address => User) public users;         // map Ethereum address with the User data structure.\r\n    uint[] public createdGames;\r\n    uint numCreatedGames;\r\n\r\n    // Events\r\n    event SendBet(address indexed _from, uint indexed _id, bool _isHome, uint256 _value);\r\n    event CreatePredictionMarket(address indexed _from, uint _id );\r\n\r\n    constructor()\r\n    {\r\n        owner = msg.sender;\r\n        numCreatedGames = 0;\r\n    }\r\n\r\n    struct Game {                                                   // id of the game of nhl api.\r\n        bool isDone;                                                // indicate if the game is done and fund cand be claim by users.\r\n        bool isCreated;                                             // indicate if this Game has been created by the contract.\r\n        bool isHomeWin;                                             // tell us if the game has been won by the for or against team.\r\n        uint256 accumulatedWeisHome;                                // amount of wei accumulated for \"Home team win\" prediction.\r\n        uint256 accumulatedWeisAway;                                // amount of wei accumulated for \"Away team win\" prediction.\r\n        mapping(address => uint256) accumulatedWeisHomeUsers;       // map a user with a his amount of weis sent to \"Home team win\" prediction.\r\n        mapping(address => uint256) accumulatedWeisAwayUsers;       // map a user with a his amount of weis sent to \"Away team win\" prediction.\r\n    }\r\n\r\n    struct User {\r\n        uint[] bets;                                                // list game IDs where the user has a bet on.\r\n        bool isCreated;                                             // indicate if the user has already been created by the contract.\r\n    }\r\n\r\n    function get_user_bet_amount(uint _id) public view returns(uint256 homeAmount, uint256 awayAmount){\r\n        require(predictionGames[_id].isCreated == true, \"The game is not created yet.\");\r\n\r\n        return (predictionGames[_id].accumulatedWeisHomeUsers[msg.sender], predictionGames[_id].accumulatedWeisAwayUsers[msg.sender]);\r\n    }\r\n\r\n    function createGame(uint _id) public {\r\n        require( msg.sender == owner, \"Only the owner is able to create a game.\" );\r\n\r\n        Game storage newGame = predictionGames[_id];\r\n\r\n        require(newGame.isCreated == false, \"cannot create a game with the same id.\");\r\n        newGame.isDone = false;\r\n        newGame.isCreated = true;\r\n        newGame.isHomeWin = false; // this value is not valid until isDone == true;\r\n        newGame.accumulatedWeisHome = 0;\r\n        newGame.accumulatedWeisAway = 0;\r\n\r\n        createdGames.push(_id);\r\n        numCreatedGames++;\r\n\r\n        emit CreatePredictionMarket(msg.sender, _id);\r\n        // TODO: Add that the creator can already add his bet with the game creation.\r\n\r\n\r\n    }\r\n\t\r\n    function sendBet(uint _id, bool _isHomeWin) public payable {\r\n        require(predictionGames[_id].isCreated == true, \"The game needs to be created to make a bet.\");\r\n\r\n        uint256 amount = msg.value;\r\n\r\n        bool isFirstBet = true;\r\n\r\n        if( predictionGames[_id].accumulatedWeisHomeUsers[msg.sender] > 0 ||\r\n            predictionGames[_id].accumulatedWeisAwayUsers[msg.sender] > 0)\r\n            isFirstBet = false; // already made a bet on this game.\r\n\r\n        if(_isHomeWin)   // \"Home team win\" prediction\r\n        {\r\n            predictionGames[_id].accumulatedWeisHome += amount;\r\n            predictionGames[_id].accumulatedWeisHomeUsers[msg.sender] += amount;\r\n        }\r\n        else            // \"Away team win\" prediction\r\n        {\r\n            predictionGames[_id].accumulatedWeisAway += amount;\r\n            predictionGames[_id].accumulatedWeisAwayUsers[msg.sender] += amount;\r\n        }\r\n\r\n        if(!users[msg.sender].isCreated)\r\n        {\r\n            User memory newUser;\r\n            \r\n            newUser.isCreated = true;\r\n\r\n            users[msg.sender] = newUser;\r\n        }\r\n\r\n        if(isFirstBet)\r\n            users[msg.sender].bets.push(_id);\r\n\r\n        emit SendBet(msg.sender, _id, _isHomeWin, msg.value);\r\n    }\r\n\r\n    function get_all_user_bets() public view returns(uint[] memory bets){\r\n        require(users[msg.sender].isCreated == true, \"The user is not registered yet.\");\r\n\r\n        return users[msg.sender].bets;\r\n    }\r\n\r\n    function get_all_user_bets_length() public view returns(uint gameBetsCount){\r\n        require(users[msg.sender].isCreated == true, \"The user is not registered yet.\");\r\n\r\n        return users[msg.sender].bets.length;\r\n    }\r\n\r\n    function get_all_user_bet(uint i) public view returns(uint gameID){\r\n        require(users[msg.sender].isCreated == true, \"The user is not registered yet.\");\r\n\r\n        return users[msg.sender].bets[i];\r\n    }\r\n\r\n    function claimBet(uint _id, bool isHomeWin) public view {\r\n        require(predictionGames[_id].isDone == true, \"The game result needs to be processed before enabling claiming.\");\r\n\r\n        uint256 amountToGiveClaimer = 0;\r\n\r\n        if(isHomeWin)\r\n            amountToGiveClaimer = predictionGames[_id].accumulatedWeisHomeUsers[msg.sender]; // TODO: need to calculate how much the user deserve here.\r\n        else\r\n            amountToGiveClaimer = predictionGames[_id].accumulatedWeisAwayUsers[msg.sender]; // TODO: need to calculate how much the user deserve here.\r\n\r\n        // transferFrom(owner, msg.sender, amountToGiveClaimer);\r\n    }\r\n}",
  "sourcePath": "C:\\Users\\jf_co\\pool-jdope\\contract\\contracts\\nhlPoolPrediction.sol",
  "compiler": {
    "name": "solc",
    "version": "0.8.10+commit.fc410830.Emscripten.clang"
  },
  "schemaVersion": "3.4.4",
  "updatedAt": "2021-12-30T17:22:35.472Z",
  "networkType": "ethereum",
  "devdoc": {
    "kind": "dev",
    "methods": {},
    "version": 1
  },
  "userdoc": {
    "kind": "user",
    "methods": {},
    "version": 1
  }
}